:100000000C9434000C9451000C9451000C94510049
:100010000C9451000C9451000C9451000C9451001C
:100020000C9451000C9451000C9451000C94420318
:100030000C9451000C9451000C9451000C945100FC
:100040000C9451000C9451000C9451000C945100EC
:100050000C9451000C9451000C9451000C945100DC
:100060000C9451000C94510011241FBECFEFD8E026
:10007000DEBFCDBF11E0A0E0B1E0EAE5FFE002C0E5
:1000800005900D92AE31B107D9F721E0AEE1B1E0B4
:1000900001C01D92A433B207E1F70E94DE030C9465
:1000A000AB070C9400001C990DC02FEF31EE94E0CB
:1000B000215030409040E1F700C000001C9902C080
:1000C00091E08927089580ED97E00E9418032FEFB3
:1000D00089E698E1215080409040E1F700C000009F
:1000E00084EF96E00E9418032FEF89E698E12150F3
:1000F00080409040E1F700C0000083E396E00E945A
:1001000018032FEF89E698E1215080409040E1F7F5
:1001100000C000008AED95E00E9418032FEF89E6E9
:1001200098E1215080409040E1F700C0000087E353
:1001300095E00E9418032FEF89E698E12150804056
:100140009040E1F700C0000085EA94E00E941803A7
:100150002FEF89E698E1215080409040E1F700C000
:10016000000083E294E00E9418032FEF89E698E1F3
:10017000215080409040E1F700C0000088EE93E0FD
:100180000E9418032FEF89E698E1215080409040AB
:10019000E1F700C0000083E294E00E9418032FEF13
:1001A00089E698E1215080409040E1F700C00000CE
:1001B00085EA94E00E9418032FEF89E698E1215028
:1001C00080409040E1F700C0000087E395E00E9486
:1001D00018032FEF89E698E1215080409040E1F725
:1001E00000C000008AED95E00E9418032FEF89E619
:1001F00098E1215080409040E1F700C0000083E387
:1002000096E00E9418032FEF89E698E12150804084
:100210009040E1F700C0000084EF96E00E941803D0
:100220002FEF89E698E1215080409040E1F700C02F
:10023000000080ED97E00E9418032FEF89E698E117
:10024000215080409040E1F700C0000008952F92B7
:100250003F924F925F926F927F928F929F92AF9256
:10026000BF92CF92DF92EF92FF920F931F93CF93A3
:10027000DF9300D000D000D0CDB7DEB78B019E83D6
:100280008D8319821A821B821C82E0E0F0E0C12C6F
:10029000D12C7601412C512C320122242A9483E066
:1002A000382E89819A81AB81BC8188519C4FAF4F98
:1002B000BF4F89839A83AB83BC83E017F107ECF4CB
:1002C0003196AD81BE818D919D91BE83AD834101FB
:1002D000881A990AA12CB12CA501940169817A810F
:1002E0008B819C810E942704460E571E681E791E32
:1002F000C80CD91CEA1CFB1CD4CFC114D104E104E6
:10030000F10441F0C301B201A70196010E944B0420
:10031000C90102C080E090E026960FB6F894DEBFD7
:100320000FBECDBFDF91CF911F910F91FF90EF9046
:10033000DF90CF90BF90AF909F908F907F906F9005
:100340005F904F903F902F900895BF92CF92DF9291
:10035000EF92FF920F931F93CF93DF937C0106E2FE
:1003600011E0C1E0D0E084E6C82ED12C94E6B92E8D
:1003700080910001909101018C179D07D4F060914C
:100380001E018C2F0E945202C296B6010E943704B1
:10039000B69EC001B79E900D1124F80120813181D5
:1003A0008217930711F09183808321960E5F1F4F70
:1003B000DFCF67E070E086E291E00E9427019C01B8
:1003C0002E193F0937FF03C0319521953109253694
:1003D00031050CF4C701DF91CF911F910F91FF9070
:1003E000EF90DF90CF90BF9008952BB123702BB981
:1003F00025B12C7F25B98C3D25E0920720F45A9A2F
:1004000080ED97E00895843C29E0920720F45B9A00
:1004100084EF96E008958C3A2DE0920720F45C9AE0
:1004200083E396E00895843921E1920720F45D9AF0
:100430008AED95E008958C3725E1920720F45E9AC5
:1004400087E395E00895843629E1920720F45F9AC6
:1004500085EA94E008958C349D4120F4289A83E243
:1004600094E00895299A88EE93E0089590917A0097
:10047000906890937A0090917C00906490937C00B7
:10048000882329F080917C00806280937C00809199
:100490007A00876080937A0080917A0080648093EC
:1004A0007A00089590917C00907F90937C009091C9
:1004B0007C00892B80937C0080917A0080648093FB
:1004C0007A0080917A0086FDFCCF662321F080912E
:1004D000790090E0089580917800909179000895D6
:1004E0008617970711F001960895CA010895841799
:1004F000950711F001970895CB0108959C0140E004
:1005000050E060E874E88EE190E00E944B042150D6
:100510003109E0ECF0E08081826080833093C50097
:100520002093C40088E18093C10086E08093C200DC
:1005300008959091C00095FFFCCF8093C600089568
:100540008091C00087FFFCCF8091C6000895CF93B3
:10055000DF93EC018991882319F00E949902FACF68
:100560008DE00E9499028AE0DF91CF910C9499026C
:10057000CF93DF93CDB7DEB7C054D1090FB6F8944F
:10058000DEBF0FBECDBF9E012B5B3F4FF9014191F6
:1005900051919F0160E470E0CE0101960E94B70482
:1005A000CE0101960E94A702C05CDF4F0FB6F894FF
:1005B000DEBF0FBECDBFDF91CF9108950F931F9384
:1005C000CF93DF93CDB7DEB728970FB6F894DEBF91
:1005D0000FBECDBF9F938F938BE191E09F938F933D
:1005E0001F9288E08F938E010F5F1F4F1F930F9311
:1005F0000E948704C8010E94A7020FB6F894DEBFCC
:100600000FBECDBF28960FB6F894DEBF0FBECDBF8C
:10061000DF91CF911F910F910895909322018093C4
:1006200021017093240160932301409320010895D8
:10063000E0912301F0912401408121E030E000901D
:10064000200102C0220F331F0A94E2F7242B2083DB
:100650000E94AF0381E0809325010895E09121017C
:10066000F0912201208181E090E00090200102C001
:10067000880F991F0A94E2F7809582238083109255
:10068000250108951F920F920FB60F9211242F93F8
:100690003F938F939F93EF93FF938091250188233E
:1006A00031F180911F018F5F8A3018F480931F0110
:1006B00002C010921F0180911F01E0912101F09171
:1006C0002201309120012081811108C081E090E059
:1006D00001C0880F3A95EAF7822708C081E090E0D0
:1006E00001C0880F3A95EAF7809582238083FF91B5
:1006F000EF919F918F913F912F910F900FBE0F908F
:100700001F90189520918100287F209381008034CC
:100710009105B9F030F48130910559F0089769F0EE
:100720000895811521E0920781F08115944089F0A8
:1007300008958091810081600FC080918100826066
:100740000BC080918100836007C08091810084602C
:1007500003C080918100856080938100089590930B
:1007600087008093860097FD0196959587959093D5
:100770008900809388000895CF93DF93EC01E0E82F
:10078000F0E090819E7F9083908192609083E1E879
:10079000F0E0908198609083908190619083CB018C
:1007A0000E948203CE010E94AF03EFE6F0E0808159
:1007B000826080837894DF91CF9108958CEF8AB91D
:1007C00087E284B9259A249823982C9A2B9A8091B1
:1007D0000201909103010E947E0280911E010E94FD
:1007E000360268E070E080ED97E00E94BC0342E0D2
:1007F00064E270E085E290E00E940D0384E091E005
:100800000E94A7020E946300C0E0D0E010E001E077
:10081000812F0E945300182F83B183FB882780F912
:10082000801302C0112351F02D9ACE010E94A50120
:10083000EC010E94F5010E941803EACF0E942E03EA
:100840008BB183708BB985B18C7D85B9E1CFDB012C
:100850008F939F930E946D04BF91AF91A29F800DD3
:10086000911DA39F900DB29F900D11240895AA1B76
:10087000BB1B51E107C0AA1FBB1FA617B70710F08B
:10088000A61BB70B881F991F5A95A9F780959095BD
:10089000BC01CD010895A1E21A2EAA1BBB1BFD01CC
:1008A0000DC0AA1FBB1FEE1FFF1FA217B307E4074F
:1008B000F50720F0A21BB30BE40BF50B661F771FA7
:1008C000881F991F1A9469F7609570958095909587
:1008D0009B01AC01BD01CF0108950E947804A59F42
:1008E000900DB49F900DA49F800D911D112408952B
:1008F000A29FB001B39FC001A39F700D811D112461
:10090000911DB29F700D811D1124911D0895AEE0BF
:10091000B0E0EDE8F4E00C9482070D891E898F8920
:10092000988D26E02C831A83098397FF02C080E00C
:1009300090E801979E838D83AE01455E5F4F698D80
:100940007A8DCE0101960E94E3044D815E8157FDB0
:100950000AC02F813885421753070CF49A01F80119
:10096000E20FF31F10822E96E4E00C949E07AEE097
:10097000B0E0EDEBF4E00C9482078C01FA0186E024
:100980008C831A83098377FF02C060E070E8CB0193
:1009900001979E838D83A901BF01CE0101960E941C
:1009A000E3044D815E8157FD0AC02F8138854217CF
:1009B00053070CF49A01F801E20FF31F10822E96F0
:1009C000E4E00C949E07ABE0B0E0E9EEF4E00C94B8
:1009D00074076C017B018A01FC01178216828381F6
:1009E00081FFCCC1CE0101963C01F6019381F70154
:1009F00093FD859193FF81917F01882309F4BAC10A
:100A0000853239F493FD859193FF81917F01853281
:100A100029F4B60190E00E94DA06E7CF912C212C50
:100A2000312CFFE1F315D8F08B3279F038F48032B5
:100A300079F08332A1F4232D20611DC08D3261F045
:100A4000803369F4232D216016C0832D8260382EF7
:100A5000E32DE4603E2E2AC0F32DF8601DC037FC64
:100A60002DC020ED280F2A3040F08E32B9F436FC2C
:100A700081C1232D2064322E19C036FE06C08AE0C3
:100A8000989E200D1124922E11C0EAE02E9E200D7A
:100A90001124222EF32DF0623F2E08C08C3621F453
:100AA000832D8068382E02C0883641F4F70193FD0B
:100AB000859193FF81917F018111B3CF982F9F7D05
:100AC0009554933028F40C5F1F4F9FE399830DC01A
:100AD000833631F0833771F0833509F059C021C076
:100AE000F801808189830E5F1F4F88248394912CA5
:100AF000530113C02801F2E04F0E511CF801A080F1
:100B0000B18036FE03C0692D70E002C06FEF7FEF49
:100B1000C5010E94CF064C018201F32DFF773F2EC5
:100B200016C0280122E0420E511CF801A080B180BD
:100B300036FE03C0692D70E002C06FEF7FEFC50184
:100B40000E94C4064C01F32DF0683F2E820133FC55
:100B50001BC0822D90E088169906B0F4B60180E2A1
:100B600090E00E94DA062A94F4CFF50137FC8591D3
:100B700037FE81915F01B60190E00E94DA062110F4
:100B80002A9421E0821A91088114910471F7E8C037
:100B9000843611F0893641F5F80137FE07C06081CF
:100BA0007181828193810C5F1F4F08C060817181C8
:100BB000072E000C880B990B0E5F1F4FF32DFF764D
:100BC0003F2E97FF09C090958095709561957F4F56
:100BD0008F4F9F4FF0683F2E2AE030E0A3010E9424
:100BE0001607882E861845C0853731F4232D2F7EB1
:100BF000B22E2AE030E025C0932D997FB92E8F3692
:100C0000C1F018F4883579F0B5C0803719F088370D
:100C100021F0B0C0E92FE061BE2EB4FE0DC0FB2D67
:100C2000F460BF2E09C034FE0AC0292F2660B22E00
:100C300006C028E030E005C020E130E002C020E13D
:100C400032E0F801B7FE07C0608171818281938133
:100C50000C5F1F4F06C06081718180E090E00E5FE5
:100C60001F4FA3010E941607882E8618FB2DFF77C1
:100C70003F2E36FE0DC0232D2E7FA22E891458F450
:100C800034FE0BC032FC09C0832D8E7EA82E05C019
:100C9000B82CA32C03C0B82C01C0B92CA4FE0FC0E3
:100CA000FE01E80DF11D8081803321F49A2D997E9B
:100CB000A92E09C0A2FE06C0B394B39404C08A2D25
:100CC000867809F0B394A3FC11C0A0FE06C0B2144C
:100CD00088F4280C922C9B180EC0B21460F4B60154
:100CE00080E290E00E94DA06B394F7CFB21418F4D1
:100CF0002B1802C0982C212CA4FE10C0B60180E352
:100D000090E00E94DA06A2FE17C0A1FC03C088E7AB
:100D100090E002C088E590E0B6010CC08A2D86788C
:100D200059F0A1FE02C08BE201C080E2A7FC8DE277
:100D3000B60190E00E94DA06891438F4B60180E327
:100D400090E00E94DA069A94F7CF8A94F301E80DB6
:100D5000F11D8081B60190E00E94DA068110F5CF86
:100D6000222009F442CEB60180E290E00E94DA0629
:100D70002A94F6CFF6018681978102C08FEF9FEF0C
:100D80002B96E2E10C949007FC01059061507040B5
:100D90000110D8F7809590958E0F9F1F0895FC0144
:100DA0006150704001900110D8F7809590958E0F9A
:100DB0009F1F08950F931F93CF93DF93FB01238110
:100DC00021FD03C08FEF9FEF2CC022FF16C046818C
:100DD0005781248135814217530744F4A081B181A2
:100DE0009D012F5F3F4F318320838C932681378174
:100DF0002F5F3F4F3783268314C08B01EC01FB012B
:100E00000084F185E02D0995892BE1F6D80116962D
:100E10008D919C911797019617969C938E93169798
:100E2000CE01DF91CF911F910F910895FA01AA276A
:100E3000283051F1203181F1E8946F936E7F6E5F1D
:100E40007F4F8F4F9F4FAF4FB1E03ED0B4E03CD0CB
:100E5000670F781F891F9A1FA11D680F791F8A1FAE
:100E6000911DA11D6A0F711D811D911DA11D20D015
:100E700009F468943F912AE0269F11243019305DCF
:100E80003193DEF6CF010895462F4770405D4193C0
:100E9000B3E00FD0C9F7F6CF462F4F70405D4A330D
:100EA00018F0495D31FD4052419302D0A9F7EACFD5
:100EB000B4E0A6959795879577956795BA95C9F704
:100EC00000976105710508959B01AC010A2E0694F7
:100ED0005795479537952795BA95C9F7620F731FB0
:100EE000841F951FA01D08952F923F924F925F92ED
:100EF0006F927F928F929F92AF92BF92CF92DF922A
:100F0000EF92FF920F931F93CF93DF93CDB7DEB78E
:100F1000CA1BDB0B0FB6F894DEBF0FBECDBF099422
:100F20002A88398848885F846E847D848C849B8479
:100F3000AA84B984C884DF80EE80FD800C811B8187
:100F4000AA81B981CE0FD11D0FB6F894DEBF0FBEB6
:0A0F5000CDBFED010895F894FFCF26
:100F5A000700802557656C636F6D6520746F205498
:0E0F6A00686572656D696E2031210025640096
:00000001FF
