:100000000C9434000C9451000C9451000C94510049
:100010000C9451000C9451000C9451000C9451001C
:100020000C9451000C9451000C9451000C945F01FD
:100030000C9451000C9451000C9451000C945100FC
:100040000C9451000C9451000C9451000C945100EC
:100050000C9451000C9451000C9451000C945100DC
:100060000C9451000C94510011241FBECFEFD8E026
:10007000DEBFCDBF11E0A0E0B1E0E6E6FBE002C0EC
:1000800005900D92AA31B107D9F721E0AAE1B1E0BC
:1000900001C01D92A232B207E1F70E94F4010C9454
:1000A000B1050C94000090917A00906890937A00CA
:1000B00090917C00906490937C00882329F080913B
:1000C0007C00806280937C0080917A0087608093BE
:1000D0007A0080917A00806480937A0008959091EC
:1000E0007C00907F90937C0090917C00892B809382
:1000F0007C0080917A00806480937A0080917A00FD
:1001000086FDFCCF662321F08091790090E0089570
:10011000809178009091790008958617970711F0E3
:1001200001960895CA0108958417950711F0019763
:100130000895CB0108959C0140E050E060E874E828
:100140008EE190E00E946B0221503109E0ECF0E07A
:100150008081826080833093C5002093C40088E151
:100160008093C10086E08093C20008959091C00002
:1001700095FFFCCF8093C60008958091C00087FF53
:10018000FCCF8091C6000895CF93DF93EC01899155
:10019000882319F00E94B600FACF8DE00E94B600C5
:1001A0008AE0DF91CF910C94B600CF93DF93CDB767
:1001B000DEB7C054D1090FB6F894DEBF0FBECDBF75
:1001C0009E012B5B3F4FF901419151919F0160E4EA
:1001D00070E0CE0101960E94BD02CE0101960E9400
:1001E000C400C05CDF4F0FB6F894DEBF0FBECDBFBA
:1001F000DF91CF9108950F931F93CF93DF93CDB7E6
:10020000DEB728970FB6F894DEBF0FBECDBF9F9321
:100210008F9387E191E09F938F931F9288E08F9354
:100220008E010F5F1F4F1F930F930E948D02C80115
:100230000E94C4000FB6F894DEBF0FBECDBF289653
:100240000FB6F894DEBF0FBECDBFDF91CF911F91E7
:100250000F91089590931C0180931B0170931E01D0
:1002600060931D0140931A010895E0911D01F091E2
:100270001E01408121E030E000901A0102C0220FEF
:10028000331F0A94E2F7242B20830E94B40181E0FB
:1002900080931F010895E0911B01F0911C012081C2
:1002A00081E090E000901A0102C0880F991F0A9423
:1002B000E2F780958223808310921F0108951F9298
:1002C0000F920FB60F9211242F938F939F93EF935A
:1002D000FF9380911F01882381F0E0911B01F09131
:1002E0001C01208181E090E000901A0102C0880F7B
:1002F000991F0A94E2F782278083FF91EF919F91E3
:100300008F912F910F900FBE0F901F9018952091F5
:100310008100287F2093810080349105B9F030F46A
:100320008130910559F0089769F00895811521E011
:10033000920781F08115944089F0089580918100A1
:1003400081600FC08091810082600BC0809181002C
:10035000836007C080918100846003C08091810028
:100360008560809381000895BC0180912001909167
:100370002101161617063CF40E945702709389005B
:10038000609388000895969587959093890080934F
:1003900088000895CF93DF93EB0190932101809320
:1003A00020019093870080938600E0E8F0E0908140
:1003B0009E7F9083908192609083E1E8F0E090814D
:1003C00098609083908190619083CA010E94870118
:1003D000CE010E94B401EFE6F0E08081826080836C
:1003E0007894DF91CF91089580E895E20E949B0078
:1003F00080E00E94530048E050E062E070E080ED51
:1004000097E00E94CA0142E067E270E088E290E073
:100410000E942A0180E091E00E94C40082E090E006
:100420000E9435012FEF87EA91E6215080409040ED
:10043000E1F700C000000E944B012FEF87EA91E630
:10044000215080409040E1F700C0000081E090E042
:100450000E9435012FEF87EA91E6215080409040BD
:10046000E1F700C000000E944B012FEF87EA91E600
:10047000215080409040E1F700C0000082E090E011
:100480000E9435012FEF87EA91E62150804090408D
:10049000E1F700C000000E944B012FEF87EA91E6D0
:1004A000215080409040E1F700C00000B7CFAA1B68
:1004B000BB1B51E107C0AA1FBB1FA617B70710F04F
:1004C000A61BB70B881F991F5A95A9F78095909581
:1004D000BC01CD010895A1E21A2EAA1BBB1BFD0190
:1004E0000DC0AA1FBB1FEE1FFF1FA217B307E40713
:1004F000F50720F0A21BB30BE40BF50B661F771F6B
:10050000881F991F1A9469F760957095809590954A
:100510009B01AC01BD01CF010895AEE0B0E0E3E97D
:10052000F2E00C9488050D891E898F89988D26E04C
:100530002C831A83098397FF02C080E090E801971B
:100540009E838D83AE01455E5F4F698D7A8DCE01AE
:1005500001960E94E9024D815E8157FD0AC02F81FC
:100560003885421753070CF49A01F801E20FF31F84
:1005700010822E96E4E00C94A405AEE0B0E0E3EC2B
:10058000F2E00C9488058C01FA0186E08C831A83D2
:10059000098377FF02C060E070E8CB0101979E837A
:1005A0008D83A901BF01CE0101960E94E9024D8110
:1005B0005E8157FD0AC02F813885421753070CF41E
:1005C0009A01F801E20FF31F10822E96E4E00C94DA
:1005D000A405ABE0B0E0EFEEF2E00C947A056C011C
:1005E0007B018A01FC0117821682838181FFCCC1C5
:1005F000CE0101963C01F6019381F70193FD8591AF
:1006000093FF81917F01882309F4BAC1853239F4BF
:1006100093FD859193FF81917F01853229F4B60185
:1006200090E00E94E004E7CF912C212C312CFFE1D7
:10063000F315D8F08B3279F038F4803279F08332C8
:10064000A1F4232D20611DC08D3261F0803369F447
:10065000232D216016C0832D8260382EE32DE460A7
:100660003E2E2AC0F32DF8601DC037FC2DC020EDB2
:10067000280F2A3040F08E32B9F436FC81C1232D88
:100680002064322E19C036FE06C08AE0989E200DE6
:100690001124922E11C0EAE02E9E200D1124222E4C
:1006A000F32DF0623F2E08C08C3621F4832D806834
:1006B000382E02C0883641F4F70193FD859193FFEF
:1006C00081917F018111B3CF982F9F7D95549330F5
:1006D00028F40C5F1F4F9FE399830DC0833631F0E0
:1006E000833771F0833509F059C021C0F80180814A
:1006F00089830E5F1F4F88248394912C530113C06C
:100700002801F2E04F0E511CF801A080B18036FEA6
:1007100003C0692D70E002C06FEF7FEFC5010E943A
:10072000D5044C018201F32DFF773F2E16C028011E
:1007300022E0420E511CF801A080B18036FE03C0B9
:10074000692D70E002C06FEF7FEFC5010E94CA04FF
:100750004C01F32DF0683F2E820133FC1BC0822D2B
:1007600090E088169906B0F4B60180E290E00E940D
:10077000E0042A94F4CFF50137FC859137FE81918E
:100780005F01B60190E00E94E00421102A9421E06C
:10079000821A91088114910471F7E8C0843611F02F
:1007A000893641F5F80137FE07C060817181828189
:1007B00093810C5F1F4F08C060817181072E000C70
:1007C000880B990B0E5F1F4FF32DFF763F2E97FF7F
:1007D00009C090958095709561957F4F8F4F9F4F81
:1007E000F0683F2E2AE030E0A3010E941C05882E0D
:1007F000861845C0853731F4232D2F7EB22E2AE08E
:1008000030E025C0932D997FB92E8F36C1F018F4B2
:10081000883579F0B5C0803719F0883721F0B0C03D
:10082000E92FE061BE2EB4FE0DC0FB2DF460BF2E9B
:1008300009C034FE0AC0292F2660B22E06C028E067
:1008400030E005C020E130E002C020E132E0F801F4
:10085000B7FE07C060817181828193810C5F1F4F59
:1008600006C06081718180E090E00E5F1F4FA301A0
:100870000E941C05882E8618FB2DFF773F2E36FE22
:100880000DC0232D2E7FA22E891458F434FE0BC0E8
:1008900032FC09C0832D8E7EA82E05C0B82CA32C57
:1008A00003C0B82C01C0B92CA4FE0FC0FE01E80D96
:1008B000F11D8081803321F49A2D997EA92E09C0E3
:1008C000A2FE06C0B394B39404C08A2D867809F0C2
:1008D000B394A3FC11C0A0FE06C0B21488F4280C87
:1008E000922C9B180EC0B21460F4B60180E290E026
:1008F0000E94E004B394F7CFB21418F42B1802C08E
:10090000982C212CA4FE10C0B60180E390E00E9438
:10091000E004A2FE17C0A1FC03C088E790E002C07B
:1009200088E590E0B6010CC08A2D867859F0A1FECA
:1009300002C08BE201C080E2A7FC8DE2B60190E02C
:100940000E94E004891438F4B60180E390E00E942C
:10095000E0049A94F7CF8A94F301E80DF11D8081A9
:10096000B60190E00E94E0048110F5CF222009F446
:1009700042CEB60180E290E00E94E0042A94F6CFD5
:10098000F6018681978102C08FEF9FEF2B96E2E1FF
:100990000C949605FC010590615070400110D8F749
:1009A000809590958E0F9F1F0895FC0161507040B7
:1009B00001900110D8F7809590958E0F9F1F089594
:1009C0000F931F93CF93DF93FB01238121FD03C07E
:1009D0008FEF9FEF2CC022FF16C0468157812481E4
:1009E00035814217530744F4A081B1819D012F5FE7
:1009F0003F4F318320838C93268137812F5F3F4F78
:100A00003783268314C08B01EC01FB010084F18540
:100A1000E02D0995892BE1F6D80116968D919C91D0
:100A20001797019617969C938E931697CE01DF9198
:100A3000CF911F910F910895FA01AA27283051F103
:100A4000203181F1E8946F936E7F6E5F7F4F8F4FFF
:100A50009F4FAF4FB1E03ED0B4E03CD0670F781F5E
:100A6000891F9A1FA11D680F791F8A1F911DA11D43
:100A70006A0F711D811D911DA11D20D009F468947C
:100A80003F912AE0269F11243019305D3193DEF624
:100A9000CF010895462F4770405D4193B3E00FD0DA
:100AA000C9F7F6CF462F4F70405D4A3318F0495DC5
:100AB00031FD4052419302D0A9F7EACFB4E0A695A8
:100AC0009795879577956795BA95C9F700976105CA
:100AD000710508959B01AC010A2E06945795479520
:100AE00037952795BA95C9F7620F731F841F951F15
:100AF000A01D08952F923F924F925F926F927F9226
:100B00008F929F92AF92BF92CF92DF92EF92FF921D
:100B10000F931F93CF93DF93CDB7DEB7CA1BDB0BC9
:100B20000FB6F894DEBF0FBECDBF09942A8839886E
:100B300048885F846E847D848C849B84AA84B98475
:100B4000C884DF80EE80FD800C811B81AA81B98181
:100B5000CE0FD11D0FB6F894DEBF0FBECDBFED0195
:060B60000895F894FFCF98
:100B660057656C636F6D6520746F20546865726598
:0A0B76006D696E2031210025640036
:00000001FF
