:100000000C9434000C9449000C9449000C94490061
:100010000C9449000C9449000C9449000C9449003C
:100020000C9449000C9449000C9449000C9449002C
:100030000C9449000C9449000C9449000C9449001C
:100040000C9449000C9449000C9449000C9449000C
:100050000C9449000C9449000C9449000C944900FC
:100060000C9449000C94490011241FBECFEFD8E036
:10007000DEBFCDBF11E0A0E0B1E0E0E0FAE002C0F9
:1000800005900D92AC3BB107D9F70E9436010C9454
:10009000FE040C9400009C0140E050E060E874E82D
:1000A0008EE190E00E94E40121503109E0ECF0E0A3
:1000B0008081826080833093C5002093C40088E1F2
:1000C0008093C10086E08093C20008959091C000A3
:1000D00095FFFCCF8093C60008958091C00087FFF4
:1000E000FCCF8091C6000895CF93DF93EC018991F6
:1000F000882319F00E946600FACF8DE00E94660006
:100100008AE0DF91CF910C9466008617970711F073
:1001100001960895CA0108958417950711F0019773
:100120000895CB0108954B9913C02FEF30E7E2E01B
:1001300021503040E040E1F700C000004B9908C07A
:100140008617970711F0019601C0CA014B9BFECF9D
:100150004C9913C02FEF30E7E2E021503040E040EF
:10016000E1F700C000004C9908C08417950711F012
:10017000019701C0CB014C9BFECF08954A9913C053
:100180002FEF30E792E0215030409040E1F700C07F
:1001900000004A9908C091E0892725B190E2922792
:1001A00095B94A9BFECF08954D990BC02FEF30E7CC
:1001B00082E0215030408040E1F700C0000088E03C
:1001C00001C080E04E990AC09FEF20E732E09150D5
:1001D00020403040E1F700C0000084604F990AC021
:1001E0009FEF20E732E0915020403040E1F700C01F
:1001F0000000826018990AC09FEF20E732E091501A
:1002000020403040E1F700C00000816008950F9366
:100210001F93CF93DF93CDB7DEB728970FB6F8942F
:10022000DEBF0FBECDBF9F938F9380EB91E09F9376
:100230008F931F9288E08F938E010F5F1F4F1F9344
:100240000F930E940602C8010E9474000FB6F89432
:10025000DEBF0FBECDBF28960FB6F894DEBF0FBE2F
:10026000CDBFDF91CF911F910F910895CF93DF9371
:10027000CDB7DEB769970FB6F894DEBF0FBECDBF1E
:1002800080E895E20E944B008CEF8BB981E085B944
:10029000259A80E091E00E9474008BE191E00E9439
:1002A000740081E591E00E94740077247394E12C3E
:1002B000F12CCE0141966C012DEAA22E21E0B22E46
:1002C00030E1532E40974C0141E3642E872D0E946C
:1002D000BE00781661F0882329F085E791E00E943E
:1002E000740007C084E991E00E94740014C0772074
:1002F00091F041EF58ED6FE077E2C7010E94930063
:100300008C01E816F90621F4772473947801DECF86
:100310000E940701F9CF89E0E3EBF1E0D6010190FB
:100320000D928A95E1F74D990DC09FEF20E782E08D
:10033000915020408040E1F700C000006D8A08E045
:1003400010E002C000E010E04E990BC09FEF20E7E4
:1003500082E0915020408040E1F700C0000004603E
:100360006E8A4F990BC09FEF20E782E091502040AA
:100370008040E1F700C0000002606F8A18990BC04E
:100380009FEF20E782E0915020408040E1F700C0DD
:1003900000000160688EE016F106A1F01F930F9334
:1003A000DF92CF92BF92AF921F925F929F928F92F5
:1003B0000E940602C4010E9474000FB6F894DEBFCA
:1003C0000FBECDBF712CA2CFA1E21A2EAA1BBB1B60
:1003D000FD010DC0AA1FBB1FEE1FFF1FA217B30711
:1003E000E407F50720F0A21BB30BE40BF50B661F27
:1003F000771F881F991F1A9469F7609570958095EB
:1004000090959B01AC01BD01CF010895AEE0B0E035
:10041000ECE0F2E00C94D5040D891E898F89988D4B
:1004200026E02C831A83098397FF02C080E090E8BE
:1004300001979E838D83AE01455E5F4F698D7A8DF6
:10044000CE0101960E9436024D815E8157FD0AC0A1
:100450002F813885421753070CF49A01F801E20FF7
:10046000F31F10822E96E4E00C94F104ABE0B0E0B0
:10047000ECE3F2E00C94C7046C017B018A01FC01FF
:1004800017821682838181FFCCC1CE0101963C0187
:10049000F6019381F70193FD859193FF81917F018F
:1004A000882309F4BAC1853239F493FD859193FF0D
:1004B00081917F01853229F4B60190E00E942D04DC
:1004C000E7CF912C212C312CFFE1F315D8F08B32A2
:1004D00079F038F4803279F08332A1F4232D206151
:1004E0001DC08D3261F0803369F4232D216016C068
:1004F000832D8260382EE32DE4603E2E2AC0F32D3A
:10050000F8601DC037FC2DC020ED280F2A3040F0C8
:100510008E32B9F436FC81C1232D2064322E19C0ED
:1005200036FE06C08AE0989E200D1124922E11C03E
:10053000EAE02E9E200D1124222EF32DF0623F2E94
:1005400008C08C3621F4832D8068382E02C088368E
:1005500041F4F70193FD859193FF81917F01811112
:10056000B3CF982F9F7D9554933028F40C5F1F4F85
:100570009FE399830DC0833631F0833771F0833563
:1005800009F059C021C0F801808189830E5F1F4F97
:1005900088248394912C530113C02801F2E04F0E5C
:1005A000511CF801A080B18036FE03C0692D70E0B7
:1005B00002C06FEF7FEFC5010E9422044C0182014F
:1005C000F32DFF773F2E16C0280122E0420E511C6A
:1005D000F801A080B18036FE03C0692D70E002C032
:1005E0006FEF7FEFC5010E9417044C01F32DF068F7
:1005F0003F2E820133FC1BC0822D90E088169906A5
:10060000B0F4B60180E290E00E942D042A94F4CF69
:10061000F50137FC859137FE81915F01B60190E0CD
:100620000E942D0421102A9421E0821A910881143D
:10063000910471F7E8C0843611F0893641F5F8016C
:1006400037FE07C060817181828193810C5F1F4FEB
:1006500008C060817181072E000C880B990B0E5F1A
:100660001F4FF32DFF763F2E97FF09C09095809581
:10067000709561957F4F8F4F9F4FF0683F2E2AE016
:1006800030E0A3010E946904882E861845C0853792
:1006900031F4232D2F7EB22E2AE030E025C0932D99
:1006A000997FB92E8F36C1F018F4883579F0B5C02E
:1006B000803719F0883721F0B0C0E92FE061BE2EF5
:1006C000B4FE0DC0FB2DF460BF2E09C034FE0AC07D
:1006D000292F2660B22E06C028E030E005C020E1B8
:1006E00030E002C020E132E0F801B7FE07C06081CF
:1006F0007181828193810C5F1F4F06C0608171817F
:1007000080E090E00E5F1F4FA3010E946904882ED5
:100710008618FB2DFF773F2E36FE0DC0232D2E7F32
:10072000A22E891458F434FE0BC032FC09C0832D6C
:100730008E7EA82E05C0B82CA32C03C0B82C01C0F7
:10074000B92CA4FE0FC0FE01E80DF11D808180339D
:1007500021F49A2D997EA92E09C0A2FE06C0B39459
:10076000B39404C08A2D867809F0B394A3FC11C019
:10077000A0FE06C0B21488F4280C922C9B180EC060
:10078000B21460F4B60180E290E00E942D04B394AC
:10079000F7CFB21418F42B1802C0982C212CA4FE09
:1007A00010C0B60180E390E00E942D04A2FE17C0A5
:1007B000A1FC03C088E790E002C088E590E0B601A4
:1007C0000CC08A2D867859F0A1FE02C08BE201C0D0
:1007D00080E2A7FC8DE2B60190E00E942D0489140E
:1007E00038F4B60180E390E00E942D049A94F7CF8C
:1007F0008A94F301E80DF11D8081B60190E00E941A
:100800002D048110F5CF222009F442CEB60180E2FA
:1008100090E00E942D042A94F6CFF60186819781FC
:1008200002C08FEF9FEF2B96E2E10C94E304FC01F2
:100830000590615070400110D8F7809590958E0F0B
:100840009F1F0895FC016150704001900110D8F77E
:10085000809590958E0F9F1F08950F931F93CF93B0
:10086000DF93FB01238121FD03C08FEF9FEF2CC09D
:1008700022FF16C0468157812481358142175307D4
:1008800044F4A081B1819D012F5F3F4F31832083CC
:100890008C93268137812F5F3F4F3783268314C087
:1008A0008B01EC01FB010084F185E02D0995892B7A
:1008B000E1F6D80116968D919C911797019617969F
:1008C0009C938E931697CE01DF91CF911F910F913C
:1008D0000895FA01AA27283051F1203181F1E894D6
:1008E0006F936E7F6E5F7F4F8F4F9F4FAF4FB1E023
:1008F0003ED0B4E03CD0670F781F891F9A1FA11D1E
:10090000680F791F8A1F911DA11D6A0F711D811D1E
:10091000911DA11D20D009F468943F912AE0269FE3
:1009200011243019305D3193DEF6CF010895462F42
:100930004770405D4193B3E00FD0C9F7F6CF462F23
:100940004F70405D4A3318F0495D31FD405241938C
:1009500002D0A9F7EACFB4E0A69597958795779549
:100960006795BA95C9F700976105710508959B01D0
:10097000AC010A2E06945795479537952795BA9559
:10098000C9F7620F731F841F951FA01D08952F9232
:100990003F924F925F926F927F928F929F92AF920F
:1009A000BF92CF92DF92EF92FF920F931F93CF935C
:1009B000DF93CDB7DEB7CA1BDB0B0FB6F894DEBFF3
:1009C0000FBECDBF09942A88398848885F846E8419
:1009D0007D848C849B84AA84B984C884DF80EE8063
:1009E000FD800C811B81AA81B981CE0FD11D0FB66C
:1009F000F894DEBF0FBECDBFED010895F894FFCF90
:100A000057656C636F6D6520746F20536572696103
:100A10006C20436F756E746572210050726573733C
:100A200020533320746F2073776974636820626584
:100A3000747765656E206D6F6D656E746172792077
:100A4000616E642064697020636F756E74696E678F
:100A50000043757272656E746C79207365742074CE
:100A60006F206D6F6D656E7461727920636F756E46
:100A700074696E67004368616E67696E6720746FA2
:100A8000206D6F6D656E7461727920636F756E7421
:100A9000696E67004368616E67696E6720746F20D6
:100AA00044495020436F756E74696E67002573204A
:0C0AB00025640030303030303030300031
:00000001FF
